:040000008031E4283F
:100008007E1480312000911C0A280B2845282100E5
:10001800911020001C11911050085104031D15283F
:10002800162838281B0825001102031C1C281D2827
:100038001F28F40126281108031D23282428262810
:10004800F401F40A7403031D2A282B2830280130F0
:10005800F6007608910741287408031D34283528CE
:10006800412801309102412850035104031D3D28C5
:100078003E2841283F30250091002100911420009E
:100088001C15111F48284928E228210011132000B7
:100098001113F50164307502031C532854285528A0
:1000A800AD287508F600F701F635F70DF635F70DAA
:1000B800F830760784000030773D80388500003FAF
:1000C800F800013FF900023FFA00033FFB007B08FC
:1000D8004702031D79287A084602031D7928790802
:1000E8004502031D792878084402031C7C287D28D2
:1000F80085287508F600F7017608D2007708D3003E
:10010800AD288430840082308500003FF600013F2E
:10011800F700023FF800033FF90079084702031D82
:100128009F2878084602031D9F2877084502031D6B
:100138009F28760844020318A228A328A828C830B4
:10014800D2000030D300AD280130F6007608F5075C
:100158004E2872080319B128B228E0280130CC07CC
:100168000030CD3D00304D02053003194C02031C10
:10017800BE28BF28E0280C121C112500930121007D
:100188001D1020008C12031020008C1E031403186D
:10019800CE28D12820008C16D32820008C120530B8
:1001A800F7000F30F600F130890BD828F60BD82865
:1001B800F70BD8280000C728210011177E10090066
:1001C8008031E628F001F101F201F301F401F501B3
:1001D800403084000030850018308431EF248031AD
:1001E8007E1020008431762C6834B3340234003415
:1001F80000348A3402340034543463340234003412
:1002080000343F340234003404341D3402340034E2
:100218006034FD34013400341434E03401340034E3
:100228005834C434013400342C34AA340134003432
:1002380060347B34013400340C34663401340034C7
:100248000C3452340134003438343F34013400342F
:10025800A4342D340134003414341D3401340034F2
:1002680088340D3401340034EC34FE340034003466
:100278004034F134003400345C34E4340034003465
:100288002C34D83400340034C434CC340034003432
:10029800FC34C13400340034E834B734003400345A
:1002A8006034AE34003400346434A534003400348F
:1002B800E0349C3400340034E8349434003400349E
:1002C80068348D34003400344C34863400340034BF
:1002D80094347F34003400344034793400340034AA
:1002E8003C347334003400349C346D3400340034AE
:1002F800383468340034003438346334003400341B
:1003080074345E3400340034EC345934003400342E
:10031800A03455340034003490345134003400345F
:10032800BC344D34003400341A344A3400340034B8
:10033800AA344634003400346C3443340034003476
:100348004C344034003400345E343D3400340034DE
:1003580098343A3400340034F034373400340034FC
:1003680070343534003400340E34333400340034FF
:10037800CA34303400340034A4342E340034003409
:100388009C342C3400340034A8342A34003400342B
:10039800D234283400340034103427340034003484
:1003A8006634253400340034CE3423340034003429
:1003B8004A34223400340034D83420340034003431
:1003C8007A341F34003400342A341E3400340034A4
:1003D800EC341C3400340034BA341B340034003498
:1003E80098341A3400340034843419340034003416
:1003F8007C3418340034003480341734003400342A
:100408009034163400340034AA34153400340034DF
:10041800CE34143400340034FE3413340034003441
:100428003634133400340034763412340034003453
:10043800C034113400340034103411340034003422
:100448006A34103400340034CA340F3400340034B1
:1004580030340F34003400349E340E340034003409
:1004680012340E34003400348C340D34003400342B
:100478000C340D340034003490340C34003400341F
:100488001A340C3400340034AA340B3400340034E9
:100498003E340B3400340034D6340A34003400348B
:1004A80072340A340034003414340A34003400340A
:1004B800B83409340034003460340934003400346A
:1004C8000C34093400340034BA34083400340034AD
:1004D8006E340834003400342234083400340034D4
:1004E800DC340734003400349634073400340034E4
:1004F80054340734003400341534073400340034DD
:10050800D7340634003400347308031D8C2A8D2A2E
:10051800202B003084310724823120002008C000BD
:100528002108C100C201C3010030BA000430BB0079
:100538000030BC000030BD004008BA024108BB3B97
:100548004208BC3B4308BD3B3D08C3003C08C20011
:100558003B08C1003A08C0004308A3004208A200B3
:100568004108A1004008A0000030A7000030A60004
:100578000130A500F430A4008431422482312000E7
:100588002008BA002108BB002208BC002308BD00CF
:100598000A30BD36BC0CBB0CBA0C890BCD2A3D0801
:1005A800D7003C08D6003B08D5003A08D4005708C5
:1005B800AF005608AE005508AD005408AC00F43042
:1005C800BA000130BB000030BC000030BD00540848
:1005D800BA025508BB3B5608BC3B5708BD3B3D0813
:1005E800A3003C08A2003B08A1003A08A000003084
:1005F800A7000030A6002730A5001030A4008431E1
:100608004224823120002308B3002208B2002108C6
:10061800B1002008B00083316123823120002F0807
:10062800C7002E08C6002D08C5002C08C4000130DC
:10063800BA003A08F307602B7303031D242B252BFC
:100648004C2B013084310724823120002108CB0053
:100658002008CA004B08A1004A08A0000A30A200DE
:100668000030A3008431A524823120002008BA007C
:100678002108BB000730BB36BA0C890B3F2B3A0860
:10068800F0003B08F1000A30F0070030F13D1B2B69
:1006980002307306031D512B522B5F2B023084311D
:1006A8000724823120002108C9002008C800490811
:1006B800CF004808CE00F301080000302000B80041
:1006C8000030B7000030B6000030B5002F082E0407
:1006D8002D042C040319712B722BB32BB901B90A01
:1006E800802B0130AC35AD0DAE0DAF0D890B762BDF
:1006F8000130B4003408B907AF1F832B842B752B46
:100708000130B535B60DB70DB80D890B852B2F08FF
:100718003302031D992B2E083202031D992B2D0835
:100728003102031D992B2C083002031C9C2B9D2B96
:10073800A62B2C08B0022D08B13B2E08B23B2F087F
:10074800B33B35140130AF36AE0CAD0CAC0C890B95
:10075800A72B0130B902031DB22BB32B842B380809
:10076800AF003708AE003608AD003508AC00080009
:100778007108803A2000A0005308803A2002031D27
:10078800C72B52087002031CCA2BCB2BEA2B200064
:100798000C160130D0000030D10000304F02643018
:1007A80003194E02031CD92BDA2BE32B03304F021B
:1007B800853003194E02031CE22BE32BE62BF201D2
:1007C800F20A062CF201CC01CD01062C7008053E78
:1007D8002000A0000030713DA1002108803AA2004D
:1007E8005308803A2202031DFB2B520820020318EB
:1007F800FE2BFF2B062C20000C12D001D101F20198
:10080800CC01CD0108002000A9002908A200A20DF2
:10081800A20D21001D08200022068339220621008E
:100828009D0034302000A200F130890B192CA20B56
:10083800192C003221009D149D18232C242C202CC7
:100848001B082000A2000630A236890B282C22089B
:10085800A300A40121001C082000A500A601A535BD
:10086800A60DA535A60D23082504A70024082604EF
:10087800A8002708A0002808A100080000302000D0
:10088800AB000030AA000030A9000030A800201CEE
:100898004E2C4F2C572C2408A8072508A93D2608BC
:1008A800AA3D2708AB3D0130A435A50DA60DA70D1F
:1008B800890B582C0130A336A20CA10CA00C890B73
:1008C8005F2C2308220421042004031D6C2C6D2CAA
:1008D8004B2C2B08A3002A08A2002908A1002808ED
:1008E800A0000800F2012000CC01CD018431C5240C
:1008F80084318431DA24843129302000BF009630D5
:10090800BE007F30890B862CBE0B862CBF0B862C35
:1009180020001C1521008C128231882284318331F9
:10092800BC23843105302000BF000F30BE00F130F9
:10093800890B9C2CBE0B9C2CBF0B9C2C902C8031C3
:10094800E4282000A401A501201CAB2CAC2CB02C61
:100958002208A4072308A53D0130A235A30D890B61
:10096800B12C0130A136A00C890BB62C200821042B
:10097800031DBF2CC02CA82C2508A1002408A0000A
:10098800080070302100990020000C1221000C1280
:1009980023000C148C140C15503021009E001117E4
:1009A8002000111321009D101D14080021008C1631
:1009B80022001D14FE3020009B000F3025009304F8
:1009C8003F3093058B170B172100911420009110CD
:1009D80003309C040800640080010131890BF02C6D
:0209E8000034D9
:020000040001F9
:04000E00E42FFF1FBD
:00000001FF
