:040000008031E32840
:100008007E1480312000911C0A280B2846282100E4
:10001800911020001C11911078087904031D1528EF
:10002800162838281B0825001102031C1C281D2827
:100038001F28F40126281108031D23282428262810
:10004800F401F40A7403031D2A282B2830280130F0
:10005800F0007008910742287408031D34283528D9
:10006800422801309102422878037904031D3D2873
:100078003E2842281B08FF3E2500910021009114CC
:1000880020001C15111F49284A28E12821001113B6
:1000980020001113F5017508F000F101F035F10D9C
:1000A8003F30700784000230713D80388500003F82
:1000B800F200013FF30073084802031D6528720827
:1000C8004702031C6828692871287508F000F101A7
:1000D8007008D1007108D2007B280130F000700848
:1000E800F50750307502031C7A287B284F287A08B8
:1000F80003197F288028DF28003050026430031954
:100108004F02031C88288928922803305002853022
:1001180003194F02031C91289228AB285308FE3E6E
:10012800F000FF30543DF1007108803AF2005208A7
:10013800803A7202031DA22851087002031CA528E8
:10014800A628AB280130F6070030F73DAE28F601A7
:10015800F701FA0100307702053003197602031C13
:10016800B628B728DF2820000C121C112100911096
:1001780025009101930121008C121D1020008C1282
:100188000530F1000F30F000F130890BC928F00B71
:10019800C928F10BC928000020008C160530F10091
:1001A8000F30F000F130890BD728F00BD728F10B6E
:1001B800D7280000C228210011177E1009008031BD
:1001C800E528F601F701F801F901FA014330840046
:1001D8000030850012308331F32380317E102000F7
:1001E8008031F628FA01F601F7012000C201C20A9F
:1001F8008331C92380318331DE2380312500910189
:1002080031302000BB00B430BA006530890B0A29B0
:10021800BA0B0A29BB0B0A29003221008C122000D4
:100228001C1520004203031D1A291B29AE29003082
:1002380083313A23803120002008C3002108C400FC
:10024800C501C6010030BA000430BB000030BC0054
:100258000030BD004308BA024408BB3B4508BC3B1C
:100268004608BD3B3D08C6003C08C5003B08C40025
:100278003A08C3004608A3004508A2004408A100A4
:100288004308A0000030A7000030A6000130A500F8
:10029800F430A40083317523803120002008BA008F
:1002A8002108BB002208BC002308BD000A30BD3667
:1002B800BC0CBB0CBA0C890B5B293D08C1003C087F
:1002C800C0003B08BF003A08BE004108AF00400824
:1002D800AE003F08AD003E08AC00F430BA00013073
:1002E800BB000030BC000030BD003E08BA023F0829
:1002F800BB3B4008BC3B4108BD3B3D08A3003C0854
:10030800A2003B08A1003A08A0000030A700003076
:10031800A6000330A500E830A4008331752380319E
:1003280020002308B3002208B2002108B1002008E9
:10033800B0008231DF22803120002F08CA002E0849
:10034800C9002D08C8002C08C7000130BA003A08B7
:10035800C207E62902304206031DB329B429D7296A
:10036800013083313A23803120002108CE00200853
:10037800CD004E08A1004D08A0000A30A2000030B0
:10038800A3008331A923803120002008BA00210866
:10039800BB000730BB36BA0C890BCE293A08D3000C
:1003A8003B08D400A929023083313A238031200048
:1003B8002108CC002008CB004C08D0004B08CF0007
:1003C800C201C20A5308FE3EBA00FF30543DBB00CA
:1003D8003B08803ABC005208803A3C02031DF629CB
:1003E80051083A02031CF929FA29192A20000C1687
:1003F8000130F8000030F900003050026430031971
:100408004F02031C082A092A122A03305002853099
:1004180003194F02031C112A122A152AFA01FA0A93
:100428002F2AFA01F601F7012F2A20005408803AF2
:10043800BA005208803A3A02031D242A510853028E
:100448000318272A282A2F2A20000C12F801F9015C
:10045800FA01F601F70109302000BB001E30BA008E
:10046800E430890B352ABA0B352ABB0B352A000034
:1004780015298031E328F0342534CE342334CE34A2
:100488002134EC341F342A341E3482341C34F434BE
:100498001A347E341934203418349E3415347A349E
:1004A80014346634133464341234703411348A3496
:1004B8001034B0340F34E4340E3424340E346E3433
:1004C8000D34C2340C3420340C3486340B34F634F6
:1004D8000A346C340A34EC34093472340934FE3486
:1004E80008349034083428340834C634073469345E
:1004F800073411340734BE3406346E3406342334DA
:100508000634DC34053498340534583405341B3447
:100518000534E1340434AA340434763404344434DD
:10052800043415340434E8340334BD3403349434C7
:1005380003346D3403344834033425340334043429
:100548000334E4340234C5340234A83402348D341C
:1005580002347234023459340234413402342A34B5
:10056800023414340234FF340134EB340134D83407
:100578000134C6340134B4340134A434013494341D
:1005880001348434013476340134683401345A3403
:1005980001344E34013441340134353401342A34C1
:1005A80001341F340134153401340B34013402345E
:1005B8000134F834003400302000B8000030B700AF
:1005C8000030B6000030B5002F082E042D042C048E
:1005D8000319EF2AF02A312BB901B90AFE2A013092
:1005E800AC35AD0DAE0DAF0D890BF42A0130B4005A
:1005F8003408B907AF1F012B022BF32A0130B53598
:10060800B60DB70DB80D890B032B2F083302031D48
:10061800172B2E083202031D172B2D083102031D3C
:10062800172B2C083002031C1A2B1B2B242B2C08ED
:10063800B0022D08B13B2E08B23B2F08B33B35144E
:100648000130AF36AE0CAD0CAC0C890B252B01304C
:10065800B902031D302B312B022B3808AF003708A5
:10066800AE003608AD003508AC0008002000A9002F
:100678002908A200A20DA20D21001D0820002206B3
:100688008339220621009D0034302000A200F13079
:10069800890B4C2BA20B4C2B003221009D149D186A
:1006A800562B572B532B1B082000A2000630A236CE
:1006B800890B5B2B2208A300A40121001C08200041
:1006C800A500A601A535A60DA535A60D2308250468
:1006D800A70024082604A8002708A0002808A100CD
:1006E800080000302000AB000030AA000030A9004C
:1006F8000030A800201C812B822B8A2B2408A807F5
:100708002508A93D2608AA3D2708AB3D0130A43598
:10071800A50DA60DA70D890B8B2B0130A336A20CB6
:10072800A10CA00C890B922B23082204210420047D
:10073800031D9F2BA02B7E2B2B08A3002A08A200A9
:100748002908A1002808A00008002000A401A5018C
:10075800201CAF2BB02BB42B2208A4072308A53DDF
:100768000130A235A30D890BB52B0130A136A00CA1
:10077800890BBA2B20082104031DC32BC42BAC2BD7
:100788002508A1002408A000080070302100990065
:1007980020000C1221000C1223000C148C140C15D0
:1007A800503021009E0011172000111321009D10C8
:1007B8001D14080021008C1622001D14FF30200093
:1007C8009B000F30250093043F3093058B170B17C0
:1007D800210091142000911003309C04080064004B
:0A07E80080010131890BF42B00346D
:020000040001F9
:04000E00E42FFF1FBD
:00000001FF
