:040000008031DD2846
:100008007E1480312000911C0A280B2845282100E5
:10001800911020001C11911052085304031D15283B
:10002800162838281B0825001102031C1C281D2827
:100038001F28F40126281108031D23282428262810
:10004800F401F40A7403031D2A282B2830280130F0
:10005800F0007008910741287408031D34283528DA
:10006800412801309102412852035304031D3D28C1
:100078003E2841283F30250091002100911420009E
:100088001C15111F48284928DB28210011132000BE
:100098001113F5017508F000F101F035F10DC630C6
:1000A800700784000130713D80388500003FF20000
:1000B800013FF30073084902031D642872084802CF
:1000C800031C6728682870287508F000F10170087B
:1000D800D4007108D5007A280130F0007008F507BF
:1000E80050307502031C79287A284E287A0803199B
:1000F8007E287F28D92800307702643003197602D9
:10010800031C872888289128033077028530031933
:100118007602031C90289128AB287808FE3EF00050
:10012800FF30793DF1007108803AF2005508803AB5
:100138007202031DA12854087002031CA428A528D4
:10014800AB2801302000D0070030D13DAF28200077
:10015800D001D101FA0100305102053003195002D3
:10016800031CB728B828D9280C121C1125009301A4
:1001780021001D1020008C12031020008C1E031477
:100188000318C728CA2820008C16CC2820008C12F7
:100198000530F1000F30F000F130890BD128F00B59
:1001A800D128F10BD1280000C028210011177E109A
:1001B80009008031DF288331FA238031D600F60127
:1001C800F701F801F901FA01443084000030850094
:1001D80012308331F42380317E10200083317B2B51
:1001E80020005603031DF928FA288D290030833191
:1001F8000C23803120002008C4002108C500C60156
:10020800C7010030BA000430BB000030BC00003029
:10021800BD004408BA024508BB3B4608BC3B47083A
:10022800BD3B3D08C7003C08C6003B08C5003A086E
:10023800C4004708A3004608A2004508A1004408D6
:10024800A0000030A7000030A6000130A500F4305F
:10025800A40083314723803120002008BA002108F8
:10026800BB002208BC002308BD000A30BD36BC0C08
:10027800BB0CBA0C890B3A293D08C1003C08C000E8
:100288003B08BF003A08BE004108AF004008AE0076
:100298003F08AD003E08AC00F430BA000130BB00A6
:1002A8000030BC000030BD003E08BA023F08BB3B2E
:1002B8004008BC3B4108BD3B3D08A3003C08A200E8
:1002C8003B08A1003A08A0000030A7000030A600B3
:1002D8000330A500E830A400833147238031200093
:1002E8002308B3002208B2002108B1002008B0009A
:1002F80082316622803120002F08CB002E08CA00E8
:100308002D08C9002C08C8000130BA003A08D607E1
:10031800C52902305606031D92299329B6290130B2
:1003280083310C23803120002108CF002008CE0023
:100338004F08A1004E08A0000A30A2000030A30018
:100348008331AA23803120002008BA002108BB008D
:100358000730BB36BA0C890BAD293A08F8003B08C0
:10036800F9008829023083310C23803120002108CC
:10037800CD002008CC004D08F7004C08F600D60147
:10038800D60A0800F0342534CE342334CE34213450
:10039800EC341F342A341E3482341C34F4341A34B6
:1003A8007E341934203418349E3415347A34143495
:1003B8006634133464341234703411348A3410348B
:1003C800B0340F34E4340E3424340E346E340D3427
:1003D800C2340C3420340C3486340B34F6340A34EA
:1003E8006C340A34EC34093472340934FE34083479
:1003F8009034083428340834C63407346934073450
:1004080011340734BE3406346E34063423340634CB
:10041800DC34053498340534583405341B34053439
:10042800E1340434AA3404347634043444340434CF
:1004380015340434E8340334BD34033494340334B9
:100448006D3403344834033425340334043403341A
:10045800E4340234C5340234A83402348D3402340E
:100468007234023459340234413402342A340234A6
:1004780014340234FF340134EB340134D8340134F9
:10048800C6340134B4340134A4340134943401340E
:100498008434013476340134683401345A340134F4
:1004A8004E34013441340134353401342A340134B2
:1004B8001F340134153401340B340134023401344F
:1004C800F834003400302000B8000030B7000030A5
:1004D800B6000030B5002F082E042D042C04031993
:1004E800762A772AB82AB901B90A852A0130AC35A3
:1004F800AD0DAE0DAF0D890B7B2A0130B400340869
:10050800B907AF1F882A892A7A2A0130B535B60D6E
:10051800B70DB80D890B8A2A2F083302031D9E2AAE
:100528002E083202031D9E2A2D083102031D9E2A21
:100538002C083002031CA12AA22AAB2A2C08B002DC
:100548002D08B13B2E08B23B2F08B33B35140130C0
:10055800AF36AE0CAD0CAC0C890BAC2A0130B9022D
:10056800031DB72AB82A892A3808AF003708AE0011
:100578003608AD003508AC0008007808FE3E2000BB
:10058800A000FF30793DA1002108803AA20055085B
:10059800803A2202031DD22A54082002031CD52ABD
:1005A800D62AF52A20000C160130D2000030D300DC
:1005B80000307702643003197602031CE42AE52A26
:1005C800EE2A03307702853003197602031CED2AE0
:1005D800EE2AF12AFA01FA0A0B2BFA01D001D1010D
:1005E8000B2B7908803A2000A0005508803A200299
:1005F800031D002B540878020318032B042B0B2B24
:1006080020000C12D201D301FA01D001D101080057
:100618002000A9002908A200A20DA20D21001D0892
:10062800200022068339220621009D003430200054
:10063800A200F130890B1E2BA20B1E2B00322100C9
:100648009D149D18282B292B252B1B082000A20060
:100658000630A236890B2D2B2208A300A401210005
:100668001C082000A500A601A535A60DA535A60DD8
:1006780023082504A70024082604A8002708A000AA
:100688002808A100080000302000AB000030AA00B4
:100698000030A9000030A800201C532B542B5C2BE1
:1006A8002408A8072508A93D2608AA3D2708AB3D28
:1006B8000130A435A50DA60DA70D890B5D2B0130C2
:1006C800A336A20CA10CA00C890B642B23082204CE
:1006D80021042004031D712B722B502B2B08A3001F
:1006E8002A08A2002908A1002808A0000800FA0189
:1006F8002000D001D1018331CA2383318331DF2324
:10070800833129302000C3009630C2007F30890B26
:100718008B2BC20B8B2BC30B8B2B20001C152100A2
:100728008C128031F42083318231C122833105302B
:100738002000C3000F30C200F130890BA12BC20B7F
:10074800A12BC30BA12B952B8031DD282000A40100
:10075800A501201CB02BB12BB52B2208A407230818
:10076800A53D0130A235A30D890BB62B0130A1366A
:10077800A00C890BBB2B20082104031DC42BC52BFF
:10078800AD2B2508A1002408A00008007030210026
:10079800990020000C1221000C1223000C148C1458
:1007A8000C15503021009E00111720001113210054
:1007B8009D101D14080021008C1622001D14FE3007
:1007C80020009B000F30250093043F3093058B17C2
:1007D8000B17210091142000911003309C0408008D
:0E07E800640080010131890BF52B00340134CF
:020000040001F9
:04000E00E42FFF1FBD
:00000001FF
